:03000000020006F5
:06005F0075080102000318
:0300030002006593
:10006500D29520900C1200B82090061200B87509A0
:100075000120910C1200B82091061200B8750A02F1
:1000850020920C1200B82092061200B8750B0320BE
:10009500930E1200B82093CA1200B8750C0480C2E2
:1000A5002094BF1200B82094B91200B8750800B2A8
:1000B5009580FC7E887F13EE24FFFCEF34FFFD8CDA
:0800C500068D07EC4D70F022DE
:06003500E478FFF6D8FD9F
:100013007900E94400601B7A009000D1780175A053
:1000230000E493F2A308B8000205A0D9F4DAF2754C
:02003300A0FF2C
:10003B007800E84400600A790175A000E4F309D860
:10004B00FC7800E84400600C7900900001E4F0A318
:04005B00D8FCD9FAFA
:0D00060075810C1200CDE58260030200033D
:0400CD007582002216
:00000001FF
