:0400000002001132B7
:03000B0002013BB4
:10006A00750800750901750A3C750BAF750C0075AA
:0B007A000D00750E00750F0002000E57
:03000E0002008568
:10008500D2B3D28520900B120126209005120126AD
:100095000508E50824FB5003750800E50824FB4026
:1000A50049E50875F003A49000B0730200BF020093
:1000B500C90200D30200DD0200E7D280D281D282DC
:1000C500D2838026C280D281D282D283801CD28004
:1000D500C281D282D2838012D280D281C282D2835F
:1000E5008008D280D281D282C283209497120126C1
:1000F500209412E508600E120126E509B40100E41A
:1001050033F509B2B3120116E509600302008580D3
:10011500F7758901850A8C850B8AD2AFD28CD2A955
:10012500227E887F13EE24FFFCEF34FFFD8C068DC5
:1001350007EC4D70F022C0E0C0D0050C7414B50C6E
:100145002BB285750C00050D743CB50D1F750D00A2
:10015500050E743CB50E15750E00050FE508B50FB7
:100165000BB2B3E509B40100E433F509850A8C85C2
:070175000B8AD0D0D0E0326C
:06004000E478FFF6D8FD94
:10001E007900E94400601B7A00900180780175A098
:10002E0000E493F2A308B8000205A0D9F4DAF27541
:02003E00A0FF21
:100046007800E84400600A790175A000E4F309D855
:10005600FC7800E84400600C7900900001E4F0A30D
:04006600D8FCD9FAEF
:0D00110075810F12017CE582600302000E74
:04017C007582002266
:00000001FF
